{
  "contractName": "Escrow",
  "abi": [
    {
      "inputs": [
        {
          "internalType": "address payable",
          "name": "_buyer",
          "type": "address"
        },
        {
          "internalType": "address payable",
          "name": "_sender",
          "type": "address"
        }
      ],
      "payable": false,
      "stateMutability": "nonpayable",
      "type": "constructor"
    },
    {
      "anonymous": false,
      "inputs": [
        {
          "indexed": false,
          "internalType": "address",
          "name": "buyer",
          "type": "address"
        }
      ],
      "name": "confirmpayment",
      "type": "event"
    },
    {
      "anonymous": false,
      "inputs": [
        {
          "indexed": false,
          "internalType": "string",
          "name": "name",
          "type": "string"
        }
      ],
      "name": "gets",
      "type": "event"
    },
    {
      "constant": true,
      "inputs": [],
      "name": "PdfCount",
      "outputs": [
        {
          "internalType": "uint256",
          "name": "",
          "type": "uint256"
        }
      ],
      "payable": false,
      "stateMutability": "view",
      "type": "function"
    },
    {
      "constant": true,
      "inputs": [],
      "name": "arbiter",
      "outputs": [
        {
          "internalType": "address payable",
          "name": "",
          "type": "address"
        }
      ],
      "payable": false,
      "stateMutability": "view",
      "type": "function"
    },
    {
      "constant": true,
      "inputs": [],
      "name": "buyer",
      "outputs": [
        {
          "internalType": "address payable",
          "name": "",
          "type": "address"
        }
      ],
      "payable": false,
      "stateMutability": "view",
      "type": "function"
    },
    {
      "constant": true,
      "inputs": [
        {
          "internalType": "uint256",
          "name": "",
          "type": "uint256"
        }
      ],
      "name": "pdfs",
      "outputs": [
        {
          "internalType": "uint256",
          "name": "id",
          "type": "uint256"
        },
        {
          "internalType": "string",
          "name": "name",
          "type": "string"
        },
        {
          "internalType": "uint256",
          "name": "price",
          "type": "uint256"
        },
        {
          "internalType": "address payable",
          "name": "buyer",
          "type": "address"
        },
        {
          "internalType": "address payable",
          "name": "seller",
          "type": "address"
        }
      ],
      "payable": false,
      "stateMutability": "view",
      "type": "function"
    },
    {
      "constant": true,
      "inputs": [],
      "name": "price",
      "outputs": [
        {
          "internalType": "uint256",
          "name": "",
          "type": "uint256"
        }
      ],
      "payable": false,
      "stateMutability": "view",
      "type": "function"
    },
    {
      "constant": true,
      "inputs": [],
      "name": "seller",
      "outputs": [
        {
          "internalType": "address payable",
          "name": "",
          "type": "address"
        }
      ],
      "payable": false,
      "stateMutability": "view",
      "type": "function"
    },
    {
      "constant": true,
      "inputs": [],
      "name": "state",
      "outputs": [
        {
          "internalType": "enum Escrow.State",
          "name": "",
          "type": "uint8"
        }
      ],
      "payable": false,
      "stateMutability": "view",
      "type": "function"
    },
    {
      "constant": false,
      "inputs": [
        {
          "internalType": "uint256",
          "name": "_id",
          "type": "uint256"
        },
        {
          "internalType": "string",
          "name": "_name",
          "type": "string"
        },
        {
          "internalType": "uint256",
          "name": "_price",
          "type": "uint256"
        },
        {
          "internalType": "string",
          "name": "_url",
          "type": "string"
        }
      ],
      "name": "createPdf",
      "outputs": [],
      "payable": false,
      "stateMutability": "nonpayable",
      "type": "function"
    },
    {
      "constant": true,
      "inputs": [
        {
          "internalType": "uint256",
          "name": "_id",
          "type": "uint256"
        }
      ],
      "name": "getPdf",
      "outputs": [
        {
          "internalType": "string",
          "name": "_url",
          "type": "string"
        }
      ],
      "payable": false,
      "stateMutability": "view",
      "type": "function"
    },
    {
      "constant": false,
      "inputs": [],
      "name": "confirmPayment",
      "outputs": [],
      "payable": true,
      "stateMutability": "payable",
      "type": "function"
    },
    {
      "constant": false,
      "inputs": [],
      "name": "confirmDelivery",
      "outputs": [],
      "payable": false,
      "stateMutability": "nonpayable",
      "type": "function"
    },
    {
      "constant": false,
      "inputs": [],
      "name": "ReturnPayment",
      "outputs": [],
      "payable": false,
      "stateMutability": "nonpayable",
      "type": "function"
    }
  ],
  "bytecode": "0x6080604052600060045534801561001557600080fd5b50604051610fab380380610fab8339818101604052604081101561003857600080fd5b81019080805190602001909291908051906020019092919050505033600360006101000a81548173ffffffffffffffffffffffffffffffffffffffff021916908373ffffffffffffffffffffffffffffffffffffffff160217905550816000806101000a81548173ffffffffffffffffffffffffffffffffffffffff021916908373ffffffffffffffffffffffffffffffffffffffff16021790555080600160006101000a81548173ffffffffffffffffffffffffffffffffffffffff021916908373ffffffffffffffffffffffffffffffffffffffff1602179055506000600760006101000a81548160ff0219169083600281111561013457fe5b02179055505050610e618061014a6000396000f3fe6080604052600436106100a75760003560e01c80636722c338116100645780636722c3381461028e5780637150d8ae146104015780638b3501a414610458578063a035b1fe1461050c578063c19d93fb14610537578063fe25e00a14610570576100a7565b806308551a53146100ac5780630a26d3b31461010357806355f0cc451461012e5780635e10177b1461014557806362ef1f811461015c5780636345877914610166575b600080fd5b3480156100b857600080fd5b506100c16105c7565b604051808273ffffffffffffffffffffffffffffffffffffffff1673ffffffffffffffffffffffffffffffffffffffff16815260200191505060405180910390f35b34801561010f57600080fd5b506101186105ed565b6040518082815260200191505060405180910390f35b34801561013a57600080fd5b506101436105f3565b005b34801561015157600080fd5b5061015a6106eb565b005b61016461082b565b005b34801561017257600080fd5b5061019f6004803603602081101561018957600080fd5b8101908080359060200190929190505050610986565b60405180868152602001806020018581526020018473ffffffffffffffffffffffffffffffffffffffff1673ffffffffffffffffffffffffffffffffffffffff1681526020018373ffffffffffffffffffffffffffffffffffffffff1673ffffffffffffffffffffffffffffffffffffffff168152602001828103825286818151815260200191508051906020019080838360005b8381101561024f578082015181840152602081019050610234565b50505050905090810190601f16801561027c5780820380516001836020036101000a031916815260200191505b50965050505050505060405180910390f35b34801561029a57600080fd5b506103ff600480360360808110156102b157600080fd5b8101908080359060200190929190803590602001906401000000008111156102d857600080fd5b8201836020820111156102ea57600080fd5b8035906020019184600183028401116401000000008311171561030c57600080fd5b91908080601f016020809104026020016040519081016040528093929190818152602001838380828437600081840152601f19601f820116905080830192505050505050509192919290803590602001909291908035906020019064010000000081111561037957600080fd5b82018360208201111561038b57600080fd5b803590602001918460018302840111640100000000831117156103ad57600080fd5b91908080601f016020809104026020016040519081016040528093929190818152602001838380828437600081840152601f19601f820116905080830192505050505050509192919290505050610a94565b005b34801561040d57600080fd5b50610416610c6e565b604051808273ffffffffffffffffffffffffffffffffffffffff1673ffffffffffffffffffffffffffffffffffffffff16815260200191505060405180910390f35b34801561046457600080fd5b506104916004803603602081101561047b57600080fd5b8101908080359060200190929190505050610c93565b6040518080602001828103825283818151815260200191508051906020019080838360005b838110156104d15780820151818401526020810190506104b6565b50505050905090810190601f1680156104fe5780820380516001836020036101000a031916815260200191505b509250505060405180910390f35b34801561051857600080fd5b50610521610d48565b6040518082815260200191505060405180910390f35b34801561054357600080fd5b5061054c610d4e565b6040518082600281111561055c57fe5b60ff16815260200191505060405180910390f35b34801561057c57600080fd5b50610585610d61565b604051808273ffffffffffffffffffffffffffffffffffffffff1673ffffffffffffffffffffffffffffffffffffffff16815260200191505060405180910390f35b600160009054906101000a900473ffffffffffffffffffffffffffffffffffffffff1681565b60045481565b600160009054906101000a900473ffffffffffffffffffffffffffffffffffffffff1673ffffffffffffffffffffffffffffffffffffffff163373ffffffffffffffffffffffffffffffffffffffff161461064d57600080fd5b600180600281111561065b57fe5b600760009054906101000a900460ff16600281111561067657fe5b1461068057600080fd5b6000809054906101000a900473ffffffffffffffffffffffffffffffffffffffff1673ffffffffffffffffffffffffffffffffffffffff166108fc479081150290604051600060405180830381858888f193505050501580156106e7573d6000803e3d6000fd5b5050565b6000809054906101000a900473ffffffffffffffffffffffffffffffffffffffff1673ffffffffffffffffffffffffffffffffffffffff163373ffffffffffffffffffffffffffffffffffffffff1614806107935750600360009054906101000a900473ffffffffffffffffffffffffffffffffffffffff1673ffffffffffffffffffffffffffffffffffffffff163373ffffffffffffffffffffffffffffffffffffffff16145b61079c57600080fd5b600160009054906101000a900473ffffffffffffffffffffffffffffffffffffffff1673ffffffffffffffffffffffffffffffffffffffff166108fc479081150290604051600060405180830381858888f19350505050158015610804573d6000803e3d6000fd5b506002600760006101000a81548160ff0219169083600281111561082457fe5b0217905550565b6000809054906101000a900473ffffffffffffffffffffffffffffffffffffffff1673ffffffffffffffffffffffffffffffffffffffff163373ffffffffffffffffffffffffffffffffffffffff1614806108d35750600360009054906101000a900473ffffffffffffffffffffffffffffffffffffffff1673ffffffffffffffffffffffffffffffffffffffff163373ffffffffffffffffffffffffffffffffffffffff16145b6108dc57600080fd5b6001600760006101000a81548160ff021916908360028111156108fb57fe5b02179055507f281346ebfe724982b0911e95b4046f7fc9660a86b819a8173459a88cfc2f4f2b6000809054906101000a900473ffffffffffffffffffffffffffffffffffffffff16604051808273ffffffffffffffffffffffffffffffffffffffff1673ffffffffffffffffffffffffffffffffffffffff16815260200191505060405180910390a1565b6005602052806000526040600020600091509050806000015490806001018054600181600116156101000203166002900480601f016020809104026020016040519081016040528092919081815260200182805460018160011615610100020316600290048015610a385780601f10610a0d57610100808354040283529160200191610a38565b820191906000526020600020905b815481529060010190602001808311610a1b57829003601f168201915b5050505050908060020154908060030160009054906101000a900473ffffffffffffffffffffffffffffffffffffffff16908060040160009054906101000a900473ffffffffffffffffffffffffffffffffffffffff16905085565b600160009054906101000a900473ffffffffffffffffffffffffffffffffffffffff1673ffffffffffffffffffffffffffffffffffffffff163373ffffffffffffffffffffffffffffffffffffffff1614610aee57600080fd5b83600560008681526020019081526020016000206000018190555082600560008681526020019081526020016000206001019080519060200190610b33929190610d87565b5081600560008681526020019081526020016000206002018190555080600660008681526020019081526020016000209080519060200190610b76929190610d87565b50336005600086815260200190815260200160002060040160006101000a81548173ffffffffffffffffffffffffffffffffffffffff021916908373ffffffffffffffffffffffffffffffffffffffff1602179055507fbcabb79bf611ee83fbb3e5de96a0a4d2358232b0ef0340ab304ef431874a10a7836040518080602001828103825283818151815260200191508051906020019080838360005b83811015610c2e578082015181840152602081019050610c13565b50505050905090810190601f168015610c5b5780820380516001836020036101000a031916815260200191505b509250505060405180910390a150505050565b6000809054906101000a900473ffffffffffffffffffffffffffffffffffffffff1681565b6060600660008381526020019081526020016000208054600181600116156101000203166002900480601f016020809104026020016040519081016040528092919081815260200182805460018160011615610100020316600290048015610d3c5780601f10610d1157610100808354040283529160200191610d3c565b820191906000526020600020905b815481529060010190602001808311610d1f57829003601f168201915b50505050509050919050565b60025481565b600760009054906101000a900460ff1681565b600360009054906101000a900473ffffffffffffffffffffffffffffffffffffffff1681565b828054600181600116156101000203166002900490600052602060002090601f016020900481019282601f10610dc857805160ff1916838001178555610df6565b82800160010185558215610df6579182015b82811115610df5578251825591602001919060010190610dda565b5b509050610e039190610e07565b5090565b610e2991905b80821115610e25576000816000905550600101610e0d565b5090565b9056fea265627a7a72315820e0a4052941c546cd350d8a4612f58918626fc5831ce8243fd5c6ca0a96a1706964736f6c63430005100032",
  "source": "// SPDX-License-Identifier: GPL-3.0 \npragma solidity >=0.4.16 <0.9.0;\n// Defining a Contract\ncontract Escrow{\n\n\t// Declaring the state variables\n\n\taddress payable public buyer;\n\taddress payable public seller;\n\tuint public price;\n\taddress payable public arbiter;\n\t uint public PdfCount = 0;\n\n// \tmapping(address => uint) TotalAmount;\n\n   struct Pdf {\n        uint id;\n        string name;\n        uint price;\n        \taddress payable  buyer;\n\n        address payable seller;\n    }\n    mapping(uint=>Pdf)public pdfs;\n    mapping(uint => string) ipfsUrl;\n\n\n\t// Defining a enumerator 'State'\n\tenum State{\n\t\t\n\t\t// Following are the data members\n\t\tawate_payment, awate_delivery, complete\n\t}\n\n\t// Declaring the object of the enumerator\n\tState public state;\n\t\n\t// Defining function modifier 'instate'\n\tmodifier instate(State expected_state){\n\t\t\n\t\trequire(state == expected_state);\n\t\t_;\n\t}\n\n// Defining function modifier 'onlyBuyer'\n\tmodifier onlyBuyer(){\n\t\trequire(msg.sender == buyer ||\n\t\t\t\tmsg.sender == arbiter);\n\t\t_;\n\t}\n\n\t// Defining function modifier 'onlySeller'\n\tmodifier onlySeller(){\n\t\trequire(msg.sender == seller);\n\t\t_;\n\t}\n\t\n\tevent gets(string name);\n    event confirmpayment(address buyer);\n\n\t// Defining a constructor\n\tconstructor(address payable _buyer,\n\t\t\t\taddress payable _sender) public{\n\t\t\n\t\t// Assigning the values of the\n\t\t// state variables\n\t\tarbiter = msg.sender;\n\t\tbuyer = _buyer;\n\t\tseller = _sender;\n\t\tstate = State.awate_payment;\n\t}\n\t   \n\n    \t   \n\t    function createPdf(uint _id,string memory _name, uint _price,string memory _url) public onlySeller\n\t{\n     \n        pdfs[_id].id = _id;\n         pdfs[_id].name = _name;\n         pdfs[_id].price = _price;\n        ipfsUrl[_id]=_url;\n\n         pdfs[_id].seller = msg.sender;\n         \n         emit gets(_name);\n    }\n\n\n  \n\n\t     function getPdf(uint _id) public view returns (string memory _url)\n\t{\n\t\treturn(ipfsUrl[_id]);\n       \n    }\n    \n    \n    \n\t// Defining function to confirm payment\n\tfunction confirmPayment() onlyBuyer external payable{\n\n\t\tstate = State.awate_delivery;\n\t\temit confirmpayment( buyer);\n\n\t}  \n\t\n\t\n\t// Defining function to confirm delivery\n\tfunction confirmDelivery() onlyBuyer external{\n\n\t\tseller.transfer(address(this).balance);\n\t\tstate = State.complete;\n\t\t\n\t}\n\t\n\t\n\n\t// Defining function to return payment\n\tfunction ReturnPayment() onlySeller instate(\n\tState.awate_delivery)public{\n\t\t\n\t\t\n\tbuyer.transfer(address(this).balance);\n\t}\n\t\n}\n",
  "sourcePath": "/home/user/Downloads/CLASS_ZIP/Escrow_pjt/contracts/Escrow.sol",
  "compiler": {
    "name": "solc",
    "version": "0.5.16+commit.9c3226ce.Emscripten.clang"
  },
  "schemaVersion": "3.4.2",
  "updatedAt": "2021-08-06T07:32:30.881Z",
  "networkType": "ethereum",
  "devdoc": {
    "methods": {}
  },
  "userdoc": {
    "methods": {}
  }
}